{
  "_format": "hh3-artifact-1",
  "contractName": "AgentMarket",
  "sourceName": "contracts/AgentMarket.sol",
  "abi": [
    {
      "inputs": [],
      "stateMutability": "nonpayable",
      "type": "constructor"
    },
    {
      "inputs": [],
      "name": "AccessControlBadConfirmation",
      "type": "error"
    },
    {
      "inputs": [
        {
          "internalType": "address",
          "name": "account",
          "type": "address"
        },
        {
          "internalType": "bytes32",
          "name": "neededRole",
          "type": "bytes32"
        }
      ],
      "name": "AccessControlUnauthorizedAccount",
      "type": "error"
    },
    {
      "inputs": [],
      "name": "ECDSAInvalidSignature",
      "type": "error"
    },
    {
      "inputs": [
        {
          "internalType": "uint256",
          "name": "length",
          "type": "uint256"
        }
      ],
      "name": "ECDSAInvalidSignatureLength",
      "type": "error"
    },
    {
      "inputs": [
        {
          "internalType": "bytes32",
          "name": "s",
          "type": "bytes32"
        }
      ],
      "name": "ECDSAInvalidSignatureS",
      "type": "error"
    },
    {
      "inputs": [],
      "name": "EnforcedPause",
      "type": "error"
    },
    {
      "inputs": [],
      "name": "ExpectedPause",
      "type": "error"
    },
    {
      "inputs": [],
      "name": "InvalidInitialization",
      "type": "error"
    },
    {
      "inputs": [],
      "name": "NotInitializing",
      "type": "error"
    },
    {
      "inputs": [],
      "name": "ReentrancyGuardReentrantCall",
      "type": "error"
    },
    {
      "inputs": [
        {
          "internalType": "address",
          "name": "token",
          "type": "address"
        }
      ],
      "name": "SafeERC20FailedOperation",
      "type": "error"
    },
    {
      "anonymous": false,
      "inputs": [
        {
          "indexed": true,
          "internalType": "address",
          "name": "oldAdmin",
          "type": "address"
        },
        {
          "indexed": true,
          "internalType": "address",
          "name": "newAdmin",
          "type": "address"
        }
      ],
      "name": "AdminChanged",
      "type": "event"
    },
    {
      "anonymous": false,
      "inputs": [
        {
          "indexed": false,
          "internalType": "address",
          "name": "oldAgentNFT",
          "type": "address"
        },
        {
          "indexed": false,
          "internalType": "address",
          "name": "newAgentNFT",
          "type": "address"
        }
      ],
      "name": "AgentNFTUpdated",
      "type": "event"
    },
    {
      "anonymous": false,
      "inputs": [
        {
          "indexed": true,
          "internalType": "address",
          "name": "admin",
          "type": "address"
        }
      ],
      "name": "ContractPaused",
      "type": "event"
    },
    {
      "anonymous": false,
      "inputs": [
        {
          "indexed": true,
          "internalType": "address",
          "name": "admin",
          "type": "address"
        }
      ],
      "name": "ContractUnpaused",
      "type": "event"
    },
    {
      "anonymous": false,
      "inputs": [
        {
          "indexed": true,
          "internalType": "address",
          "name": "account",
          "type": "address"
        },
        {
          "indexed": false,
          "internalType": "uint256",
          "name": "balance",
          "type": "uint256"
        }
      ],
      "name": "Deposit",
      "type": "event"
    },
    {
      "anonymous": false,
      "inputs": [
        {
          "indexed": false,
          "internalType": "uint256",
          "name": "discountMintFee",
          "type": "uint256"
        }
      ],
      "name": "DiscountMintFeeUpdated",
      "type": "event"
    },
    {
      "anonymous": false,
      "inputs": [
        {
          "indexed": false,
          "internalType": "uint256",
          "name": "oldFeeRate",
          "type": "uint256"
        },
        {
          "indexed": false,
          "internalType": "uint256",
          "name": "newFeeRate",
          "type": "uint256"
        }
      ],
      "name": "FeeRateUpdated",
      "type": "event"
    },
    {
      "anonymous": false,
      "inputs": [
        {
          "indexed": true,
          "internalType": "address",
          "name": "admin",
          "type": "address"
        },
        {
          "indexed": false,
          "internalType": "address",
          "name": "currency",
          "type": "address"
        },
        {
          "indexed": false,
          "internalType": "uint256",
          "name": "amount",
          "type": "uint256"
        }
      ],
      "name": "FeesWithdrawn",
      "type": "event"
    },
    {
      "anonymous": false,
      "inputs": [
        {
          "indexed": false,
          "internalType": "uint64",
          "name": "version",
          "type": "uint64"
        }
      ],
      "name": "Initialized",
      "type": "event"
    },
    {
      "anonymous": false,
      "inputs": [
        {
          "indexed": false,
          "internalType": "uint256",
          "name": "mintFee",
          "type": "uint256"
        }
      ],
      "name": "MintFeeUpdated",
      "type": "event"
    },
    {
      "anonymous": false,
      "inputs": [
        {
          "indexed": true,
          "internalType": "address",
          "name": "seller",
          "type": "address"
        },
        {
          "indexed": true,
          "internalType": "address",
          "name": "buyer",
          "type": "address"
        },
        {
          "indexed": false,
          "internalType": "uint256",
          "name": "tokenId",
          "type": "uint256"
        },
        {
          "indexed": false,
          "internalType": "uint256",
          "name": "price",
          "type": "uint256"
        },
        {
          "indexed": false,
          "internalType": "address",
          "name": "currency",
          "type": "address"
        }
      ],
      "name": "OrderFulfilled",
      "type": "event"
    },
    {
      "anonymous": false,
      "inputs": [
        {
          "indexed": true,
          "internalType": "uint256",
          "name": "tokenId",
          "type": "uint256"
        },
        {
          "indexed": true,
          "internalType": "address",
          "name": "from",
          "type": "address"
        },
        {
          "indexed": true,
          "internalType": "address",
          "name": "to",
          "type": "address"
        },
        {
          "indexed": false,
          "internalType": "uint256",
          "name": "mintFee",
          "type": "uint256"
        }
      ],
      "name": "PaidMinted",
      "type": "event"
    },
    {
      "anonymous": false,
      "inputs": [
        {
          "indexed": false,
          "internalType": "address",
          "name": "account",
          "type": "address"
        }
      ],
      "name": "Paused",
      "type": "event"
    },
    {
      "anonymous": false,
      "inputs": [
        {
          "indexed": true,
          "internalType": "bytes32",
          "name": "role",
          "type": "bytes32"
        },
        {
          "indexed": true,
          "internalType": "bytes32",
          "name": "previousAdminRole",
          "type": "bytes32"
        },
        {
          "indexed": true,
          "internalType": "bytes32",
          "name": "newAdminRole",
          "type": "bytes32"
        }
      ],
      "name": "RoleAdminChanged",
      "type": "event"
    },
    {
      "anonymous": false,
      "inputs": [
        {
          "indexed": true,
          "internalType": "bytes32",
          "name": "role",
          "type": "bytes32"
        },
        {
          "indexed": true,
          "internalType": "address",
          "name": "account",
          "type": "address"
        },
        {
          "indexed": true,
          "internalType": "address",
          "name": "sender",
          "type": "address"
        }
      ],
      "name": "RoleGranted",
      "type": "event"
    },
    {
      "anonymous": false,
      "inputs": [
        {
          "indexed": true,
          "internalType": "bytes32",
          "name": "role",
          "type": "bytes32"
        },
        {
          "indexed": true,
          "internalType": "address",
          "name": "account",
          "type": "address"
        },
        {
          "indexed": true,
          "internalType": "address",
          "name": "sender",
          "type": "address"
        }
      ],
      "name": "RoleRevoked",
      "type": "event"
    },
    {
      "anonymous": false,
      "inputs": [
        {
          "indexed": false,
          "internalType": "address",
          "name": "account",
          "type": "address"
        }
      ],
      "name": "Unpaused",
      "type": "event"
    },
    {
      "anonymous": false,
      "inputs": [
        {
          "indexed": true,
          "internalType": "address",
          "name": "account",
          "type": "address"
        },
        {
          "indexed": false,
          "internalType": "uint256",
          "name": "balance",
          "type": "uint256"
        }
      ],
      "name": "Withdraw",
      "type": "event"
    },
    {
      "inputs": [],
      "name": "ADMIN_ROLE",
      "outputs": [
        {
          "internalType": "bytes32",
          "name": "",
          "type": "bytes32"
        }
      ],
      "stateMutability": "view",
      "type": "function"
    },
    {
      "inputs": [],
      "name": "DEFAULT_ADMIN_ROLE",
      "outputs": [
        {
          "internalType": "bytes32",
          "name": "",
          "type": "bytes32"
        }
      ],
      "stateMutability": "view",
      "type": "function"
    },
    {
      "inputs": [],
      "name": "MAX_FEE_RATE",
      "outputs": [
        {
          "internalType": "uint256",
          "name": "",
          "type": "uint256"
        }
      ],
      "stateMutability": "view",
      "type": "function"
    },
    {
      "inputs": [],
      "name": "PAUSER_ROLE",
      "outputs": [
        {
          "internalType": "bytes32",
          "name": "",
          "type": "bytes32"
        }
      ],
      "stateMutability": "view",
      "type": "function"
    },
    {
      "inputs": [],
      "name": "VERSION",
      "outputs": [
        {
          "internalType": "string",
          "name": "",
          "type": "string"
        }
      ],
      "stateMutability": "view",
      "type": "function"
    },
    {
      "inputs": [],
      "name": "admin",
      "outputs": [
        {
          "internalType": "address",
          "name": "",
          "type": "address"
        }
      ],
      "stateMutability": "view",
      "type": "function"
    },
    {
      "inputs": [],
      "name": "agentNFT",
      "outputs": [
        {
          "internalType": "address",
          "name": "",
          "type": "address"
        }
      ],
      "stateMutability": "view",
      "type": "function"
    },
    {
      "inputs": [
        {
          "internalType": "address",
          "name": "",
          "type": "address"
        }
      ],
      "name": "balances",
      "outputs": [
        {
          "internalType": "uint256",
          "name": "",
          "type": "uint256"
        }
      ],
      "stateMutability": "view",
      "type": "function"
    },
    {
      "inputs": [
        {
          "internalType": "address",
          "name": "account",
          "type": "address"
        }
      ],
      "name": "deposit",
      "outputs": [],
      "stateMutability": "payable",
      "type": "function"
    },
    {
      "inputs": [
        {
          "internalType": "address",
          "name": "",
          "type": "address"
        }
      ],
      "name": "feeBalances",
      "outputs": [
        {
          "internalType": "uint256",
          "name": "",
          "type": "uint256"
        }
      ],
      "stateMutability": "view",
      "type": "function"
    },
    {
      "inputs": [
        {
          "components": [
            {
              "internalType": "uint256",
              "name": "tokenId",
              "type": "uint256"
            },
            {
              "internalType": "uint256",
              "name": "expectedPrice",
              "type": "uint256"
            },
            {
              "internalType": "address",
              "name": "currency",
              "type": "address"
            },
            {
              "internalType": "uint256",
              "name": "expireTime",
              "type": "uint256"
            },
            {
              "internalType": "bytes32",
              "name": "nonce",
              "type": "bytes32"
            },
            {
              "internalType": "bytes",
              "name": "signature",
              "type": "bytes"
            },
            {
              "internalType": "address",
              "name": "receiver",
              "type": "address"
            }
          ],
          "internalType": "struct Order",
          "name": "order",
          "type": "tuple"
        },
        {
          "components": [
            {
              "internalType": "uint256",
              "name": "tokenId",
              "type": "uint256"
            },
            {
              "internalType": "uint256",
              "name": "offerPrice",
              "type": "uint256"
            },
            {
              "internalType": "uint256",
              "name": "expireTime",
              "type": "uint256"
            },
            {
              "internalType": "bytes32",
              "name": "nonce",
              "type": "bytes32"
            },
            {
              "internalType": "bytes",
              "name": "signature",
              "type": "bytes"
            }
          ],
          "internalType": "struct Offer",
          "name": "offer",
          "type": "tuple"
        },
        {
          "components": [
            {
              "components": [
                {
                  "internalType": "bytes32",
                  "name": "oldDataHash",
                  "type": "bytes32"
                },
                {
                  "internalType": "bytes32",
                  "name": "newDataHash",
                  "type": "bytes32"
                },
                {
                  "internalType": "bytes",
                  "name": "nonce",
                  "type": "bytes"
                },
                {
                  "internalType": "bytes",
                  "name": "encryptedPubKey",
                  "type": "bytes"
                },
                {
                  "internalType": "bytes",
                  "name": "proof",
                  "type": "bytes"
                }
              ],
              "internalType": "struct AccessProof",
              "name": "accessProof",
              "type": "tuple"
            },
            {
              "components": [
                {
                  "internalType": "enum OracleType",
                  "name": "oracleType",
                  "type": "uint8"
                },
                {
                  "internalType": "bytes32",
                  "name": "oldDataHash",
                  "type": "bytes32"
                },
                {
                  "internalType": "bytes32",
                  "name": "newDataHash",
                  "type": "bytes32"
                },
                {
                  "internalType": "bytes",
                  "name": "sealedKey",
                  "type": "bytes"
                },
                {
                  "internalType": "bytes",
                  "name": "encryptedPubKey",
                  "type": "bytes"
                },
                {
                  "internalType": "bytes",
                  "name": "nonce",
                  "type": "bytes"
                },
                {
                  "internalType": "bytes",
                  "name": "proof",
                  "type": "bytes"
                }
              ],
              "internalType": "struct OwnershipProof",
              "name": "ownershipProof",
              "type": "tuple"
            }
          ],
          "internalType": "struct TransferValidityProof[]",
          "name": "proofs",
          "type": "tuple[]"
        }
      ],
      "name": "fulfillOrder",
      "outputs": [],
      "stateMutability": "payable",
      "type": "function"
    },
    {
      "inputs": [
        {
          "internalType": "address",
          "name": "account",
          "type": "address"
        }
      ],
      "name": "getBalance",
      "outputs": [
        {
          "internalType": "uint256",
          "name": "",
          "type": "uint256"
        }
      ],
      "stateMutability": "view",
      "type": "function"
    },
    {
      "inputs": [],
      "name": "getDiscountMintFee",
      "outputs": [
        {
          "internalType": "uint256",
          "name": "",
          "type": "uint256"
        }
      ],
      "stateMutability": "view",
      "type": "function"
    },
    {
      "inputs": [
        {
          "internalType": "address",
          "name": "currency",
          "type": "address"
        }
      ],
      "name": "getFeeBalance",
      "outputs": [
        {
          "internalType": "uint256",
          "name": "",
          "type": "uint256"
        }
      ],
      "stateMutability": "view",
      "type": "function"
    },
    {
      "inputs": [],
      "name": "getFeeRate",
      "outputs": [
        {
          "internalType": "uint256",
          "name": "",
          "type": "uint256"
        }
      ],
      "stateMutability": "view",
      "type": "function"
    },
    {
      "inputs": [],
      "name": "getMintFee",
      "outputs": [
        {
          "internalType": "uint256",
          "name": "",
          "type": "uint256"
        }
      ],
      "stateMutability": "view",
      "type": "function"
    },
    {
      "inputs": [
        {
          "internalType": "bytes32",
          "name": "role",
          "type": "bytes32"
        }
      ],
      "name": "getRoleAdmin",
      "outputs": [
        {
          "internalType": "bytes32",
          "name": "",
          "type": "bytes32"
        }
      ],
      "stateMutability": "view",
      "type": "function"
    },
    {
      "inputs": [
        {
          "internalType": "bytes32",
          "name": "role",
          "type": "bytes32"
        },
        {
          "internalType": "address",
          "name": "account",
          "type": "address"
        }
      ],
      "name": "grantRole",
      "outputs": [],
      "stateMutability": "nonpayable",
      "type": "function"
    },
    {
      "inputs": [
        {
          "internalType": "bytes32",
          "name": "role",
          "type": "bytes32"
        },
        {
          "internalType": "address",
          "name": "account",
          "type": "address"
        }
      ],
      "name": "hasRole",
      "outputs": [
        {
          "internalType": "bool",
          "name": "",
          "type": "bool"
        }
      ],
      "stateMutability": "view",
      "type": "function"
    },
    {
      "inputs": [
        {
          "internalType": "address",
          "name": "_agentNFT",
          "type": "address"
        },
        {
          "internalType": "uint256",
          "name": "_initialFeeRate",
          "type": "uint256"
        },
        {
          "internalType": "address",
          "name": "_admin",
          "type": "address"
        },
        {
          "internalType": "uint256",
          "name": "_initialMintFee",
          "type": "uint256"
        },
        {
          "internalType": "uint256",
          "name": "_initialDiscountMintFee",
          "type": "uint256"
        }
      ],
      "name": "initialize",
      "outputs": [],
      "stateMutability": "nonpayable",
      "type": "function"
    },
    {
      "inputs": [],
      "name": "isPaused",
      "outputs": [
        {
          "internalType": "bool",
          "name": "",
          "type": "bool"
        }
      ],
      "stateMutability": "view",
      "type": "function"
    },
    {
      "inputs": [
        {
          "components": [
            {
              "internalType": "string",
              "name": "dataDescription",
              "type": "string"
            },
            {
              "internalType": "bytes32",
              "name": "dataHash",
              "type": "bytes32"
            }
          ],
          "internalType": "struct IntelligentData[]",
          "name": "iDatas",
          "type": "tuple[]"
        },
        {
          "internalType": "address",
          "name": "to",
          "type": "address"
        },
        {
          "internalType": "bool",
          "name": "isDiscount",
          "type": "bool"
        }
      ],
      "name": "paidMint",
      "outputs": [],
      "stateMutability": "nonpayable",
      "type": "function"
    },
    {
      "inputs": [],
      "name": "pause",
      "outputs": [],
      "stateMutability": "nonpayable",
      "type": "function"
    },
    {
      "inputs": [],
      "name": "paused",
      "outputs": [
        {
          "internalType": "bool",
          "name": "",
          "type": "bool"
        }
      ],
      "stateMutability": "view",
      "type": "function"
    },
    {
      "inputs": [
        {
          "internalType": "bytes32",
          "name": "role",
          "type": "bytes32"
        },
        {
          "internalType": "address",
          "name": "callerConfirmation",
          "type": "address"
        }
      ],
      "name": "renounceRole",
      "outputs": [],
      "stateMutability": "nonpayable",
      "type": "function"
    },
    {
      "inputs": [
        {
          "internalType": "bytes32",
          "name": "role",
          "type": "bytes32"
        },
        {
          "internalType": "address",
          "name": "account",
          "type": "address"
        }
      ],
      "name": "revokeRole",
      "outputs": [],
      "stateMutability": "nonpayable",
      "type": "function"
    },
    {
      "inputs": [
        {
          "internalType": "address",
          "name": "newAdmin",
          "type": "address"
        }
      ],
      "name": "setAdmin",
      "outputs": [],
      "stateMutability": "nonpayable",
      "type": "function"
    },
    {
      "inputs": [
        {
          "internalType": "address",
          "name": "_agentNFT",
          "type": "address"
        }
      ],
      "name": "setAgentNFT",
      "outputs": [],
      "stateMutability": "nonpayable",
      "type": "function"
    },
    {
      "inputs": [
        {
          "internalType": "uint256",
          "name": "newDiscountMintFee",
          "type": "uint256"
        }
      ],
      "name": "setDiscountMintFee",
      "outputs": [],
      "stateMutability": "nonpayable",
      "type": "function"
    },
    {
      "inputs": [
        {
          "internalType": "uint256",
          "name": "newFeeRate",
          "type": "uint256"
        }
      ],
      "name": "setFeeRate",
      "outputs": [],
      "stateMutability": "nonpayable",
      "type": "function"
    },
    {
      "inputs": [
        {
          "internalType": "uint256",
          "name": "newMintFee",
          "type": "uint256"
        }
      ],
      "name": "setMintFee",
      "outputs": [],
      "stateMutability": "nonpayable",
      "type": "function"
    },
    {
      "inputs": [
        {
          "internalType": "bytes4",
          "name": "interfaceId",
          "type": "bytes4"
        }
      ],
      "name": "supportsInterface",
      "outputs": [
        {
          "internalType": "bool",
          "name": "",
          "type": "bool"
        }
      ],
      "stateMutability": "view",
      "type": "function"
    },
    {
      "inputs": [],
      "name": "unpause",
      "outputs": [],
      "stateMutability": "nonpayable",
      "type": "function"
    },
    {
      "inputs": [
        {
          "internalType": "uint256",
          "name": "",
          "type": "uint256"
        }
      ],
      "name": "usedOffers",
      "outputs": [
        {
          "internalType": "bool",
          "name": "",
          "type": "bool"
        }
      ],
      "stateMutability": "view",
      "type": "function"
    },
    {
      "inputs": [
        {
          "internalType": "uint256",
          "name": "",
          "type": "uint256"
        }
      ],
      "name": "usedOrders",
      "outputs": [
        {
          "internalType": "bool",
          "name": "",
          "type": "bool"
        }
      ],
      "stateMutability": "view",
      "type": "function"
    },
    {
      "inputs": [
        {
          "internalType": "address",
          "name": "account",
          "type": "address"
        },
        {
          "internalType": "uint256",
          "name": "amount",
          "type": "uint256"
        }
      ],
      "name": "withdraw",
      "outputs": [],
      "stateMutability": "nonpayable",
      "type": "function"
    },
    {
      "inputs": [
        {
          "internalType": "address",
          "name": "currency",
          "type": "address"
        }
      ],
      "name": "withdrawFees",
      "outputs": [],
      "stateMutability": "nonpayable",
      "type": "function"
    }
  ],
  "bytecode": "0x6080604052348015600e575f5ffd5b5060156019565b60c9565b7ff0c57e16840df040f15088dc2f81fe391c3923bec73e23a9662efc9c229c6a00805468010000000000000000900460ff161560685760405163f92ee8a960e01b815260040160405180910390fd5b80546001600160401b039081161460c65780546001600160401b0319166001600160401b0390811782556040519081527fc7f505b2f371ae2175ee4913f4499e1f2633a7b5936321eed1cdaeb6115181d29060200160405180910390a15b50565b612dc0806100d65f395ff3fe608060405260043610610212575f3560e01c80637a5caab31161011e578063c78f6803116100a8578063f340fa011161006d578063f340fa0114610611578063f3fef3a314610624578063f851a44014610643578063f8b2cb4f14610661578063ffa1ad7414610695575f5ffd5b8063c78f680314610551578063d547741f14610585578063e1308eea146105a4578063e63ab1e9146105d2578063eddd0d9c146105f2575f5ffd5b806391d14854116100ee57806391d14854146104e257806392f6576e14610501578063a217fddf14610516578063a6b387c214610529578063b187bd261461053d575f5ffd5b80637a5caab3146104875780638456cb591461049b57806384e5eed0146104af5780638895231f146104c3575f5ffd5b80633f4ba83a1161019f5780634f5bf6ff1161016f5780634f5bf6ff146103f657806353afc025146104095780635c975abb14610434578063704b6c021461044857806375b238fc14610467575f5ffd5b80633f4ba83a1461036d5780633fd773e91461038157806345596e2e146103b857806345e325ef146103d7575f5ffd5b806327e235e3116101e557806327e235e3146102b75780632ef5bb72146102e25780632f2ff15d1461031057806333d8950d1461032f57806336568abe1461034e575f5ffd5b806301ffc9a714610216578063164e68de1461024a578063248a9ca31461026b5780632542e3f814610298575b5f5ffd5b348015610221575f5ffd5b50610235610230366004612622565b6106d2565b60405190151581526020015b60405180910390f35b348015610255575f5ffd5b5061026961026436600461265d565b610708565b005b348015610276575f5ffd5b5061028a610285366004612678565b61081f565b604051908152602001610241565b3480156102a3575f5ffd5b506102696102b236600461268f565b61083f565b3480156102c2575f5ffd5b5061028a6102d136600461265d565b60066020525f908152604090205481565b3480156102ed575f5ffd5b506102356102fc366004612678565b60086020525f908152604090205460ff1681565b34801561031b575f5ffd5b5061026961032a3660046126dd565b610aa5565b34801561033a575f5ffd5b5061026961034936600461265d565b610ac7565b348015610359575f5ffd5b506102696103683660046126dd565b610b92565b348015610378575f5ffd5b50610269610bca565b34801561038c575f5ffd5b506004546103a0906001600160a01b031681565b6040516001600160a01b039091168152602001610241565b3480156103c3575f5ffd5b506102696103d2366004612678565b610c16565b3480156103e2575f5ffd5b506102696103f1366004612678565b610cb1565b610269610404366004612753565b610d05565b348015610414575f5ffd5b5061028a61042336600461265d565b60056020525f908152604090205481565b34801561043f575f5ffd5b50610235610f8f565b348015610453575f5ffd5b5061026961046236600461265d565b610fb7565b348015610472575f5ffd5b5061028a5f516020612d6b5f395f51905f5281565b348015610492575f5ffd5b5060025461028a565b3480156104a6575f5ffd5b506102696110fa565b3480156104ba575f5ffd5b5060015461028a565b3480156104ce575f5ffd5b506102696104dd3660046127ec565b611146565b3480156104ed575f5ffd5b506102356104fc3660046126dd565b61138b565b34801561050c575f5ffd5b5061028a6103e881565b348015610521575f5ffd5b5061028a5f81565b348015610534575f5ffd5b5060035461028a565b348015610548575f5ffd5b506102356113c1565b34801561055c575f5ffd5b5061028a61056b36600461265d565b6001600160a01b03165f9081526005602052604090205490565b348015610590575f5ffd5b5061026961059f3660046126dd565b6113cf565b3480156105af575f5ffd5b506102356105be366004612678565b60076020525f908152604090205460ff1681565b3480156105dd575f5ffd5b5061028a5f516020612d2b5f395f51905f5281565b3480156105fd575f5ffd5b5061026961060c366004612678565b6113eb565b61026961061f36600461265d565b611437565b34801561062f575f5ffd5b5061026961063e366004612854565b61155e565b34801561064e575f5ffd5b505f546103a0906001600160a01b031681565b34801561066c575f5ffd5b5061028a61067b36600461265d565b6001600160a01b03165f9081526006602052604090205490565b3480156106a0575f5ffd5b506106c5604051806040016040528060058152602001640312e302e360dc1b81525081565b604051610241919061287e565b5f6001600160e01b03198216637965db0b60e01b148061070257506301ffc9a760e01b6001600160e01b03198316145b92915050565b5f516020612d6b5f395f51905f5261071f81611722565b6001600160a01b0382165f908152600560205260409020548061077f5760405162461bcd60e51b81526020600482015260136024820152724e6f206665657320746f20776974686472617760681b60448201526064015b60405180910390fd5b6001600160a01b0383166107a7575f546107a2906001600160a01b03168261172f565b6107c0565b5f546107c0906001600160a01b03858116911683611858565b6001600160a01b038381165f81815260056020908152604080832083905591548251938452908301859052909216917f5e110f8bc8a20b65dcc87f224bdf1cc039346e267118bae2739847f07321ffa8910160405180910390a2505050565b5f9081525f516020612d4b5f395f51905f52602052604090206001015490565b5f6108486118b7565b805490915060ff600160401b820416159067ffffffffffffffff165f8115801561086f5750825b90505f8267ffffffffffffffff16600114801561088b5750303b155b905081158015610899575080155b156108b75760405163f92ee8a960e01b815260040160405180910390fd5b845467ffffffffffffffff1916600117855583156108e157845460ff60401b1916600160401b1785555b6108e96118df565b6108f16118df565b6108f96118e9565b6001600160a01b0388166109475760405162461bcd60e51b8152602060048201526015602482015274496e76616c69642061646d696e206164647265737360581b6044820152606401610776565b6001600160a01b038a166109985760405162461bcd60e51b8152602060048201526018602482015277496e76616c6964204167656e744e4654206164647265737360401b6044820152606401610776565b6103e88911156109de5760405162461bcd60e51b815260206004820152601160248201527008ccaca40e4c2e8ca40e8dede40d0d2ced607b1b6044820152606401610776565b5f80546001600160a01b03808b166001600160a01b031992831617835560048054918e169190921617905560018a905560028890556003879055610a2290896118f9565b50610a3a5f516020612d6b5f395f51905f52896118f9565b50610a525f516020612d2b5f395f51905f52896118f9565b508315610a9957845460ff60401b19168555604051600181527fc7f505b2f371ae2175ee4913f4499e1f2633a7b5936321eed1cdaeb6115181d29060200160405180910390a15b50505050505050505050565b610aae8261081f565b610ab781611722565b610ac183836118f9565b50505050565b5f516020612d6b5f395f51905f52610ade81611722565b6001600160a01b038216610b2f5760405162461bcd60e51b8152602060048201526018602482015277496e76616c6964204167656e744e4654206164647265737360401b6044820152606401610776565b600480546001600160a01b038481166001600160a01b031983168117909355604080519190921680825260208201939093527fa89d977ed7a904b486451e80055b85504bb5fed662ca15ed073b0bc8ebd5da1c91015b60405180910390a1505050565b6001600160a01b0381163314610bbb5760405163334bd91960e11b815260040160405180910390fd5b610bc5828261199a565b505050565b5f516020612d2b5f395f51905f52610be181611722565b610be9611a13565b60405133907f5b65b0c1363b3003db9bcc5e1fd8805a6d6bf5bf6dc9d3431ee4494cd7d11766905f90a250565b5f516020612d6b5f395f51905f52610c2d81611722565b6103e8821115610c735760405162461bcd60e51b815260206004820152601160248201527008ccaca40e4c2e8ca40e8dede40d0d2ced607b1b6044820152606401610776565b600180549083905560408051828152602081018590527f14914da2bf76024616fbe1859783fcd4dbddcb179b1f3a854949fbf920dcb9579101610b85565b5f516020612d6b5f395f51905f52610cc881611722565b60038290556040518281527f3676eabe0988ee4cbd32124705b288a699acb35a529a2223cca2a3ffe3144be2906020015b60405180910390a15050565b610d0d611a85565b610d15611acf565b5f610d1f85611af5565b90505f610d2c8587611c73565b90508215610d9e576004805460405163ebe5229d60e01b81526001600160a01b039091169163ebe5229d91610d6c91869186918c35918b918b9101612a47565b5f604051808303815f87803b158015610d83575f5ffd5b505af1158015610d95573d5f5f3e3d5ffd5b50505050610e0a565b600480546040516323b872dd60e01b81526001600160a01b03858116938201939093528383166024820152883560448201529116906323b872dd906064015f604051808303815f87803b158015610df3575f5ffd5b505af1158015610e05573d5f5f3e3d5ffd5b505050505b602085013515610e3357610e336020860135610e2c6060890160408a0161265d565b8385611e33565b5f610e4460e0880160c0890161265d565b6001600160a01b031614610eb657610e6260e0870160c0880161265d565b6001600160a01b0316816001600160a01b031614610eb65760405162461bcd60e51b81526020600482015260116024820152700a4cac6cad2eccae440dad2e6dac2e8c6d607b1b6044820152606401610776565b60808601355f9081526007602090815260408083208054600160ff19918216811790925560608a81013586526008855294839020805490911690911790556001600160a01b0384811693908616927f498027105d524604b7090c49a14ac80bcb433379dc20262458d6be32f591a111928b3592918b013591610f3d91908d01908d0161265d565b6040805193845260208401929092526001600160a01b03169082015260600160405180910390a35050610ac160017f9b779b17422d0df92223018b32b4d1fa46e071723d6817e2486d003becc55f0055565b7fcd5ed15c6e187e77e9aee88184c21f4f2182ab5827cb3b7e07fbedcd63f033005460ff1690565b5f610fc181611722565b6001600160a01b03821661100f5760405162461bcd60e51b8152602060048201526015602482015274496e76616c69642061646d696e206164647265737360581b6044820152606401610776565b5f546001600160a01b039081169083168114610bc5575f80546001600160a01b0319166001600160a01b03851617815561104990846118f9565b506110615f516020612d6b5f395f51905f52846118f9565b506110795f516020612d2b5f395f51905f52846118f9565b506110845f8261199a565b5061109c5f516020612d6b5f395f51905f528261199a565b506110b45f516020612d2b5f395f51905f528261199a565b50826001600160a01b0316816001600160a01b03167f7e644d79422f17c01e4894b5f4f588d331ebfa28653d42ae832dc59e38c9798f60405160405180910390a3505050565b5f516020612d2b5f395f51905f5261111181611722565b611119611f90565b60405133907f81990fd9a5c552b8e3677917d8a03c07678f0d2cb68f88b634aca2022e9bd19f905f90a250565b5f516020612d6b5f395f51905f5261115d81611722565b5f8261116b5760025461116f565b6003545b6001600160a01b0385165f908152600660205260409020549091508111156111e35760405162461bcd60e51b815260206004820152602160248201527f496e73756666696369656e742062616c616e636520666f72206d696e742066656044820152606560f81b6064820152608401610776565b6001600160a01b03841661122d5760405162461bcd60e51b8152602060048201526011602482015270125b9d985b1a59081c9958da5c1a595b9d607a1b6044820152606401610776565b611235610f8f565b156112525760405162461bcd60e51b815260040161077690612b86565b6001600160a01b0384165f9081526006602052604081208054839290611279908490612bc6565b90915550505f80805260056020527f05b8ccbb9d4d8fb16ea74ce3c29a41f1b461fbdaff4714a0d9a8eb05499746bc80548392906112b8908490612bd9565b90915550506004805460405163a3acac1760e01b81525f926001600160a01b039092169163a3acac17916112f2918b918b918b9101612bec565b6020604051808303815f875af115801561130e573d5f5f3e3d5ffd5b505050506040513d601f19601f820116820180604052508101906113329190612c7f565b9050846001600160a01b0316336001600160a01b0316827fddcc733e4a598e8d01a586728107d371c2ee26e9376ebfe3d4ac4ad8ee2dfe468560405161137a91815260200190565b60405180910390a450505050505050565b5f9182525f516020612d4b5f395f51905f52602090815260408084206001600160a01b0393909316845291905290205460ff1690565b5f6113ca610f8f565b905090565b6113d88261081f565b6113e181611722565b610ac1838361199a565b5f516020612d6b5f395f51905f5261140281611722565b60028290556040518281527f38fbb1c8b109c430f0c030e7ed076cf5611a307773a4e8e365601e8f8bceaec690602001610cf9565b5f34116114765760405162461bcd60e51b815260206004820152600d60248201526c09aeae6e840e6cadcc8408aa89609b1b6044820152606401610776565b6001600160a01b0381166114be5760405162461bcd60e51b815260206004820152600f60248201526e496e76616c6964206164647265737360881b6044820152606401610776565b6114c6610f8f565b156114e35760405162461bcd60e51b815260040161077690612b86565b6001600160a01b0381165f908152600660205260408120805434929061150a908490612bd9565b90915550506001600160a01b0381165f818152600660209081526040918290205491519182527fe1fffcc4923d04b559f4d29a8bfc6cda04eb5b0d3c460751c2402c5c5cc9109c910160405180910390a250565b336001600160a01b038316148061157e57505f546001600160a01b031633145b6115d95760405162461bcd60e51b815260206004820152602660248201527f4f6e6c7920746865206163636f756e74206f722061646d696e2063616e20776960448201526574686472617760d01b6064820152608401610776565b6001600160a01b0382165f908152600660205260409020548111156116375760405162461bcd60e51b8152602060048201526014602482015273496e73756666696369656e742062616c616e636560601b6044820152606401610776565b6001600160a01b03821661167f5760405162461bcd60e51b815260206004820152600f60248201526e496e76616c6964206164647265737360881b6044820152606401610776565b611687610f8f565b156116a45760405162461bcd60e51b815260040161077690612b86565b6001600160a01b0382165f90815260066020526040812080548392906116cb908490612bc6565b909155506116db9050828261172f565b816001600160a01b03167f884edad9ce6fa2440d8a54cc123490eb96d2768479d49ff9c7366125a94243648260405161171691815260200190565b60405180910390a25050565b61172c8133611feb565b50565b6001600160a01b0382166117795760405162461bcd60e51b8152602060048201526011602482015270125b9d985b1a59081c9958da5c1a595b9d607a1b6044820152606401610776565b5f81116117b95760405162461bcd60e51b815260206004820152600e60248201526d125b9d985b1a5908185b5bdd5b9d60921b6044820152606401610776565b5f826001600160a01b0316826040515f6040518083038185875af1925050503d805f8114611802576040519150601f19603f3d011682016040523d82523d5f602084013e611807565b606091505b5050905080610bc55760405162461bcd60e51b815260206004820152601c60248201527f4e617469766520746f6b656e207472616e73666572206661696c6564000000006044820152606401610776565b6040516001600160a01b03838116602483015260448201839052610bc591859182169063a9059cbb906064015b604051602081830303815290604052915060e01b6020820180516001600160e01b038381831617835250505050612028565b5f807ff0c57e16840df040f15088dc2f81fe391c3923bec73e23a9662efc9c229c6a00610702565b6118e7612094565b565b6118f1612094565b6118e76120b9565b5f5f516020612d4b5f395f51905f52611912848461138b565b611991575f848152602082815260408083206001600160a01b03871684529091529020805460ff191660011790556119473390565b6001600160a01b0316836001600160a01b0316857f2f8788117e7eff1d82e926ec794901d17c78024a50270940304540a733656f0d60405160405180910390a46001915050610702565b5f915050610702565b5f5f516020612d4b5f395f51905f526119b3848461138b565b15611991575f848152602082815260408083206001600160a01b0387168085529252808320805460ff1916905551339287917ff6391f5c32d9c69d2a47ea670b442974b53935d1edc7fd64eb21e047a839171b9190a46001915050610702565b611a1b6120c1565b7fcd5ed15c6e187e77e9aee88184c21f4f2182ab5827cb3b7e07fbedcd63f03300805460ff191681557f5db9ee0a495bf2e6ff9c91a7834c1ba4fdd244a5e8aa4e537bd38aeae4b073aa335b6040516001600160a01b03909116815260200160405180910390a150565b7f9b779b17422d0df92223018b32b4d1fa46e071723d6817e2486d003becc55f00805460011901611ac957604051633ee5aeb560e01b815260040160405180910390fd5b60029055565b611ad7610f8f565b156118e75760405163d93c066560e01b815260040160405180910390fd5b5f8160600135421115611b3a5760405162461bcd60e51b815260206004820152600d60248201526c13dc99195c88195e1c1a5c9959609a1b6044820152606401610776565b5f611b44836120e6565b60808401355f9081526007602052604090205490915060ff1615611b9f5760405162461bcd60e51b815260206004820152601260248201527113dc99195c88185b1c9958591e481d5cd95960721b6044820152606401610776565b600480546040516331a9108f60e11b81525f926001600160a01b0390921691636352211e91611bd5918835910190815260200190565b602060405180830381865afa158015611bf0573d5f5f3e3d5ffd5b505050506040513d601f19601f82011682018060405250810190611c149190612c96565b9050816001600160a01b0316816001600160a01b031614611c6c5760405162461bcd60e51b815260206004820152601260248201527109c8ca840deeedccae440dad2e6dac2e8c6d60731b6044820152606401610776565b5092915050565b5f8260400135421115611cb85760405162461bcd60e51b815260206004820152600d60248201526c13d999995c88195e1c1a5c9959609a1b6044820152606401610776565b816020013583602001351015611d005760405162461bcd60e51b815260206004820152600d60248201526c507269636520746f6f206c6f7760981b6044820152606401610776565b8235823514611d445760405162461bcd60e51b815260206004820152601060248201526f0a8ded6cadc92c840dad2e6dac2e8c6d60831b6044820152606401610776565b5f611d4e84612238565b60608501355f9081526008602052604090205490915060ff1615611da95760405162461bcd60e51b815260206004820152601260248201527113d999995c88185b1c9958591e481d5cd95960721b6044820152606401610776565b5f611dba60e0850160c0860161265d565b6001600160a01b031614611e2c57611dd860e0840160c0850161265d565b6001600160a01b0316816001600160a01b031614611e2c5760405162461bcd60e51b81526020600482015260116024820152700a4cac6cad2eccae440dad2e6dac2e8c6d607b1b6044820152606401610776565b9392505050565b60015484905f9061271090611e489084612cb1565b611e529190612cc8565b90505f611e5f8284612bc6565b9050856001600160a01b038116611f0a576001600160a01b0386165f90815260066020526040902054841115611ece5760405162461bcd60e51b8152602060048201526014602482015273496e73756666696369656e742062616c616e636560601b6044820152606401610776565b611ed8858361172f565b6001600160a01b0386165f9081526006602052604081208054869290611eff908490612bc6565b90915550611f349050565b611f1f6001600160a01b038216878785612309565b611f346001600160a01b038216873086612309565b6001600160a01b0387165f9081526005602052604081208054859290611f5b908490612bd9565b90915550505050505050505050565b60017f9b779b17422d0df92223018b32b4d1fa46e071723d6817e2486d003becc55f0055565b611f98611acf565b7fcd5ed15c6e187e77e9aee88184c21f4f2182ab5827cb3b7e07fbedcd63f03300805460ff191660011781557f62e78cea01bee320cd4e420270b5ea74000d11b0c9f74754ebdbfc544b05a25833611a67565b611ff5828261138b565b6120245760405163e2517d3f60e01b81526001600160a01b038216600482015260248101839052604401610776565b5050565b5f5f60205f8451602086015f885af180612047576040513d5f823e3d81fd5b50505f513d9150811561205e57806001141561206b565b6001600160a01b0384163b155b15610ac157604051635274afe760e01b81526001600160a01b0385166004820152602401610776565b61209c612342565b6118e757604051631afcd79f60e31b815260040160405180910390fd5b611f6a612094565b6120c9610f8f565b6118e757604051638dfc202b60e01b815260040160405180910390fd5b5f807f99a13ad9ef7db2b7aae5dc91d23a1229187ccbf8a0e25ac2bbf1f6446cff43bd83356020850135612120606087016040880161265d565b6060870135608088013561213a60e08a0160c08b0161265d565b60408051602081019890985287019590955260608601939093526001600160a01b03918216608086015260a085015260c08401919091521660e08201524661010082015230610120820152610140016040516020818303038152906040528051906020012090505f6121aa61235b565b60405161190160f01b602082015260228101919091526042810183905260620160408051601f19818403018152919052805160209091012090506122306121f460a0860186612ce7565b8080601f0160208091040260200160405190810160405280939291908181526020018383808284375f9201919091525085939250506124319050565b949350505050565b604080517f22d854a3a1ec6e7c8d9d9a102429fa03d4b941f000d2c8a0302611977d02ac9b6020828101919091528335828401528301356060828101919091529183013560808201529082013560a08201524660c08201523060e08201525f908190610100016040516020818303038152906040528051906020012090505f6122bf61235b565b60405161190160f01b602082015260228101919091526042810183905260620160408051601f19818403018152919052805160209091012090506122306121f46080860186612ce7565b6040516001600160a01b038481166024830152838116604483015260648201839052610ac19186918216906323b872dd90608401611885565b5f61234b6118b7565b54600160401b900460ff16919050565b604080518082018252600b81526a1059d95b9d13585c9ad95d60aa1b6020918201528151808301835260058152640312e302e360dc1b9082015281517f8b73c3c69bb8fe3d512ecc4cf759cc79239f7b179b0ffacaa9a75d522b39400f818301527fb8fb7080ca67014f6fb4779c70d529a66dbbc365c4460416494205964be4f388818401527f06c015bd22b4c69690933c1058878ebdfef31f9aaae40bbe86d8a09fe1b2972c60608201524660808201523060a0808301919091528351808303909101815260c0909101909252815191012090565b5f5f5f5f61243f8686612459565b92509250925061244f82826124a2565b5090949350505050565b5f5f5f8351604103612490576020840151604085015160608601515f1a6124828882858561255a565b95509550955050505061249b565b505081515f91506002905b9250925092565b5f8260038111156124b5576124b561293a565b036124be575050565b60018260038111156124d2576124d261293a565b036124f05760405163f645eedf60e01b815260040160405180910390fd5b60028260038111156125045761250461293a565b036125255760405163fce698f760e01b815260048101829052602401610776565b60038260038111156125395761253961293a565b03612024576040516335e2f38360e21b815260048101829052602401610776565b5f80807f7fffffffffffffffffffffffffffffff5d576e7357a4501ddfe92f46681b20a084111561259357505f91506003905082612618565b604080515f808252602082018084528a905260ff891692820192909252606081018790526080810186905260019060a0016020604051602081039080840390855afa1580156125e4573d5f5f3e3d5ffd5b5050604051601f1901519150506001600160a01b03811661260f57505f925060019150829050612618565b92505f91508190505b9450945094915050565b5f60208284031215612632575f5ffd5b81356001600160e01b031981168114611e2c575f5ffd5b6001600160a01b038116811461172c575f5ffd5b5f6020828403121561266d575f5ffd5b8135611e2c81612649565b5f60208284031215612688575f5ffd5b5035919050565b5f5f5f5f5f60a086880312156126a3575f5ffd5b85356126ae81612649565b94506020860135935060408601356126c581612649565b94979396509394606081013594506080013592915050565b5f5f604083850312156126ee575f5ffd5b82359150602083013561270081612649565b809150509250929050565b5f5f83601f84011261271b575f5ffd5b50813567ffffffffffffffff811115612732575f5ffd5b6020830191508360208260051b850101111561274c575f5ffd5b9250929050565b5f5f5f5f60608587031215612766575f5ffd5b843567ffffffffffffffff81111561277c575f5ffd5b850160e0818803121561278d575f5ffd5b9350602085013567ffffffffffffffff8111156127a8575f5ffd5b850160a081880312156127b9575f5ffd5b9250604085013567ffffffffffffffff8111156127d4575f5ffd5b6127e08782880161270b565b95989497509550505050565b5f5f5f5f606085870312156127ff575f5ffd5b843567ffffffffffffffff811115612815575f5ffd5b6128218782880161270b565b909550935050602085013561283581612649565b915060408501358015158114612849575f5ffd5b939692955090935050565b5f5f60408385031215612865575f5ffd5b823561287081612649565b946020939093013593505050565b602081525f82518060208401528060208501604085015e5f604082850101526040601f19601f83011684010191505092915050565b5f5f8335601e198436030181126128c8575f5ffd5b830160208101925035905067ffffffffffffffff8111156128e7575f5ffd5b80360382131561274c575f5ffd5b81835281816020850137505f828201602090810191909152601f909101601f19169091010190565b5f823560de19833603018112612931575f5ffd5b90910192915050565b634e487b7160e01b5f52602160045260245ffd5b6002811061296a57634e487b7160e01b5f52602160045260245ffd5b9052565b5f81356002811061297d575f5ffd5b612987848261294e565b5060208281013590840152604080830135908401526129a960608301836128b3565b60e060608601526129be60e0860182846128f5565b9150506129ce60808401846128b3565b85830360808701526129e18382846128f5565b925050506129f260a08401846128b3565b85830360a0870152612a058382846128f5565b92505050612a1660c08401846128b3565b85830360c0870152612a298382846128f5565b9695505050505050565b5f8235603e19833603018112612931575f5ffd5b6001600160a01b038681168252851660208201526040810184905260806060820181905281018290525f60a0600584901b8301810190830185835b86811015612b7757858403609f19018352612a9d8289612a33565b8035609e19823603018112612ab0575f5ffd5b60408087529082018035878301526020810135606088015290612ad5908201826128b3565b60a06080890152612aea60e0890182846128f5565b915050612afa60608301836128b3565b888303603f190160a08a0152612b118382846128f5565b92505050612b2260808301836128b3565b888303603f190160c08a01529250612b3b8284836128f5565b92505050612b4c602083018361291d565b91508581036020870152612b60818361296e565b955050506020928301929190910190600101612a82565b50919998505050505050505050565b60208082526012908201527110dbdb9d1c9858dd081a5cc81c185d5cd95960721b604082015260600190565b634e487b7160e01b5f52601160045260245ffd5b8181038181111561070257610702612bb2565b8082018082111561070257610702612bb2565b604080825281018390525f6060600585901b8301810190830186835b87811015612c5f57858403605f19018352612c23828a612a33565b612c2d81826128b3565b60408752612c3f6040880182846128f5565b602093840135978401979097525050928301929190910190600101612c08565b5050506001600160a01b0393909316602092909201919091525092915050565b5f60208284031215612c8f575f5ffd5b5051919050565b5f60208284031215612ca6575f5ffd5b8151611e2c81612649565b808202811582820484141761070257610702612bb2565b5f82612ce257634e487b7160e01b5f52601260045260245ffd5b500490565b5f5f8335601e19843603018112612cfc575f5ffd5b83018035915067ffffffffffffffff821115612d16575f5ffd5b60200191503681900382131561274c575f5ffdfe65d7a28e3265b37a6474929f336521b332c1681b933f6cb9f3376673440d862a02dd7bc7dec4dceedda775e58dd541e08a116c6c53815c0bd028192f7b626800a49807205ce4d355092ef5a8a18f56e8913cf4a201fbe287825b095693c21775a264697066735822122056ab3380ed0ed8c768e2cc10dc898c77b0fe005fa467871363e6f793cab6d42764736f6c634300081c0033",
  "linkReferences": {},
  "deployedLinkReferences": {},
  "immutableReferences": {},
  "inputSourceName": "project/contracts/AgentMarket.sol",
  "buildInfoId": "solc-0_8_28-917ed98d8ed417c147b2355d6afcf4088860f1bc"
}