{
  "_format": "hh3-artifact-1",
  "contractName": "TEEVerifier",
  "sourceName": "contracts/TeeVerifier.sol",
  "abi": [
    {
      "inputs": [],
      "stateMutability": "nonpayable",
      "type": "constructor"
    },
    {
      "inputs": [],
      "name": "ECDSAInvalidSignature",
      "type": "error"
    },
    {
      "inputs": [
        {
          "internalType": "uint256",
          "name": "length",
          "type": "uint256"
        }
      ],
      "name": "ECDSAInvalidSignatureLength",
      "type": "error"
    },
    {
      "inputs": [
        {
          "internalType": "bytes32",
          "name": "s",
          "type": "bytes32"
        }
      ],
      "name": "ECDSAInvalidSignatureS",
      "type": "error"
    },
    {
      "inputs": [],
      "name": "InvalidInitialization",
      "type": "error"
    },
    {
      "inputs": [],
      "name": "NotInitializing",
      "type": "error"
    },
    {
      "anonymous": false,
      "inputs": [
        {
          "indexed": false,
          "internalType": "uint64",
          "name": "version",
          "type": "uint64"
        }
      ],
      "name": "Initialized",
      "type": "event"
    },
    {
      "inputs": [],
      "name": "VERSION",
      "outputs": [
        {
          "internalType": "string",
          "name": "",
          "type": "string"
        }
      ],
      "stateMutability": "view",
      "type": "function"
    },
    {
      "inputs": [
        {
          "internalType": "bytes",
          "name": "tdxQuote",
          "type": "bytes"
        },
        {
          "components": [
            {
              "internalType": "bytes32",
              "name": "mrtd",
              "type": "bytes32"
            },
            {
              "internalType": "bytes32",
              "name": "rtmr0",
              "type": "bytes32"
            },
            {
              "internalType": "bytes32",
              "name": "rtmr1",
              "type": "bytes32"
            },
            {
              "internalType": "bytes32",
              "name": "rtmr2",
              "type": "bytes32"
            },
            {
              "internalType": "bytes32",
              "name": "rtmr3",
              "type": "bytes32"
            }
          ],
          "internalType": "struct TEEVerifier.TrustedMeasurements",
          "name": "expected",
          "type": "tuple"
        }
      ],
      "name": "initialize",
      "outputs": [],
      "stateMutability": "nonpayable",
      "type": "function"
    },
    {
      "inputs": [],
      "name": "teeAddress",
      "outputs": [
        {
          "internalType": "address",
          "name": "",
          "type": "address"
        }
      ],
      "stateMutability": "view",
      "type": "function"
    },
    {
      "inputs": [],
      "name": "trustedConfig",
      "outputs": [
        {
          "internalType": "bytes32",
          "name": "mrtd",
          "type": "bytes32"
        },
        {
          "internalType": "bytes32",
          "name": "rtmr0",
          "type": "bytes32"
        },
        {
          "internalType": "bytes32",
          "name": "rtmr1",
          "type": "bytes32"
        },
        {
          "internalType": "bytes32",
          "name": "rtmr2",
          "type": "bytes32"
        },
        {
          "internalType": "bytes32",
          "name": "rtmr3",
          "type": "bytes32"
        }
      ],
      "stateMutability": "view",
      "type": "function"
    },
    {
      "inputs": [],
      "name": "verified",
      "outputs": [
        {
          "internalType": "bool",
          "name": "",
          "type": "bool"
        }
      ],
      "stateMutability": "view",
      "type": "function"
    },
    {
      "inputs": [
        {
          "internalType": "bytes32",
          "name": "dataHash",
          "type": "bytes32"
        },
        {
          "internalType": "bytes",
          "name": "signature",
          "type": "bytes"
        }
      ],
      "name": "verifyTEESignature",
      "outputs": [
        {
          "internalType": "bool",
          "name": "",
          "type": "bool"
        }
      ],
      "stateMutability": "view",
      "type": "function"
    }
  ],
  "bytecode": "0x6080604052348015600e575f5ffd5b5060156019565b60c9565b7ff0c57e16840df040f15088dc2f81fe391c3923bec73e23a9662efc9c229c6a00805468010000000000000000900460ff161560685760405163f92ee8a960e01b815260040160405180910390fd5b80546001600160401b039081161460c65780546001600160401b0319166001600160401b0390811782556040519081527fc7f505b2f371ae2175ee4913f4499e1f2633a7b5936321eed1cdaeb6115181d29060200160405180910390a15b50565b61091d806100d65f395ff3fe608060405234801561000f575f5ffd5b5060043610610060575f3560e01c80632d43b4f41461006457806378b9e62014610079578063bbb82d89146100a9578063c74fb692146100cd578063e4c30c311461010e578063ffa1ad7414610121575b5f5ffd5b610077610072366004610781565b610152565b005b60055461008c906001600160a01b031681565b6040516001600160a01b0390911681526020015b60405180910390f35b6005546100bd90600160a01b900460ff1681565b60405190151581526020016100a0565b5f546001546002546003546004546100e6949392919085565b604080519586526020860194909452928401919091526060830152608082015260a0016100a0565b6100bd61011c366004610827565b610423565b610145604051806040016040528060058152602001640312e302e360dc1b81525081565b6040516100a0919061089e565b7ff0c57e16840df040f15088dc2f81fe391c3923bec73e23a9662efc9c229c6a008054600160401b810460ff16159067ffffffffffffffff165f811580156101975750825b90505f8267ffffffffffffffff1660011480156101b35750303b155b9050811580156101c1575080155b156101df5760405163f92ee8a960e01b815260040160405180910390fd5b845467ffffffffffffffff19166001178555831561020957845460ff60401b1916600160401b1785555b5f61021388610480565b87518151919250146102605760405162461bcd60e51b8152602060048201526011602482015270556e74727573746564205444206261736560781b60448201526064015b60405180910390fd5b86602001518160200151146102aa5760405162461bcd60e51b815260206004820152601060248201526f0556e74727573746564206c61796572360841b6044820152606401610257565b86604001518160400151146102f45760405162461bcd60e51b815260206004820152601060248201526f556e74727573746564206c617965723160801b6044820152606401610257565b866060015181606001511461033e5760405162461bcd60e51b815260206004820152601060248201526f2ab73a393ab9ba32b2103630bcb2b91960811b6044820152606401610257565b86608001518160800151146103885760405162461bcd60e51b815260206004820152601060248201526f556e74727573746564206c617965723360801b6044820152606401610257565b506005805487515f5560208801516001556040880151600255606088015160035560808801516004556001600160a81b0319167401168752bb1d04b4c93f3ed0a6e8f84534b16f2014179055831561041a57845460ff60401b19168555604051600181527fc7f505b2f371ae2175ee4913f4499e1f2633a7b5936321eed1cdaeb6115181d29060200160405180910390a15b50505050505050565b5f5f61046684848080601f0160208091040260200160405190810160405280939291908181526020018383808284375f9201919091525089939250506104dc9050565b6005546001600160a01b0390811691161495945050505050565b6104ad6040518060a001604052805f81526020015f81526020015f81526020015f81526020015f81525090565b50506040805160a0810182525f8082526020820181905291810182905260608101829052608081019190915290565b5f5f5f5f6104ea8686610504565b9250925092506104fa828261054d565b5090949350505050565b5f5f5f835160410361053b576020840151604085015160608601515f1a61052d88828585610609565b955095509550505050610546565b505081515f91506002905b9250925092565b5f826003811115610560576105606108d3565b03610569575050565b600182600381111561057d5761057d6108d3565b0361059b5760405163f645eedf60e01b815260040160405180910390fd5b60028260038111156105af576105af6108d3565b036105d05760405163fce698f760e01b815260048101829052602401610257565b60038260038111156105e4576105e46108d3565b03610605576040516335e2f38360e21b815260048101829052602401610257565b5050565b5f80807f7fffffffffffffffffffffffffffffff5d576e7357a4501ddfe92f46681b20a084111561064257505f915060039050826106c7565b604080515f808252602082018084528a905260ff891692820192909252606081018790526080810186905260019060a0016020604051602081039080840390855afa158015610693573d5f5f3e3d5ffd5b5050604051601f1901519150506001600160a01b0381166106be57505f9250600191508290506106c7565b92505f91508190505b9450945094915050565b634e487b7160e01b5f52604160045260245ffd5b604051601f8201601f1916810167ffffffffffffffff8111828210171561070e5761070e6106d1565b604052919050565b5f60a08284031215610726575f5ffd5b60405160a0810167ffffffffffffffff81118282101715610749576107496106d1565b604090815283358252602080850135908301528381013590820152606080840135908201526080928301359281019290925250919050565b5f5f60c08385031215610792575f5ffd5b823567ffffffffffffffff8111156107a8575f5ffd5b8301601f810185136107b8575f5ffd5b803567ffffffffffffffff8111156107d2576107d26106d1565b6107e5601f8201601f19166020016106e5565b8181528660208385010111156107f9575f5ffd5b816020840160208301375f6020838301015280945050505061081e8460208501610716565b90509250929050565b5f5f5f60408486031215610839575f5ffd5b83359250602084013567ffffffffffffffff811115610856575f5ffd5b8401601f81018613610866575f5ffd5b803567ffffffffffffffff81111561087c575f5ffd5b86602082840101111561088d575f5ffd5b939660209190910195509293505050565b602081525f82518060208401528060208501604085015e5f604082850101526040601f19601f83011684010191505092915050565b634e487b7160e01b5f52602160045260245ffdfea2646970667358221220514f61bf82ad23f0ac8ad1d60e56bdbe33b7eb1f54f28aba11d01cac4513a51764736f6c634300081c0033",
  "linkReferences": {},
  "deployedLinkReferences": {},
  "immutableReferences": {},
  "inputSourceName": "project/contracts/TeeVerifier.sol",
  "buildInfoId": "solc-0_8_28-47926c00a0f891abaffe335a45692b3e146ab77b"
}