{
  "_format": "hh3-artifact-1",
  "contractName": "Verifier",
  "sourceName": "contracts/verifiers/Verifier.sol",
  "abi": [
    {
      "inputs": [],
      "stateMutability": "nonpayable",
      "type": "constructor"
    },
    {
      "inputs": [],
      "name": "AccessControlBadConfirmation",
      "type": "error"
    },
    {
      "inputs": [
        {
          "internalType": "address",
          "name": "account",
          "type": "address"
        },
        {
          "internalType": "bytes32",
          "name": "neededRole",
          "type": "bytes32"
        }
      ],
      "name": "AccessControlUnauthorizedAccount",
      "type": "error"
    },
    {
      "inputs": [],
      "name": "ECDSAInvalidSignature",
      "type": "error"
    },
    {
      "inputs": [
        {
          "internalType": "uint256",
          "name": "length",
          "type": "uint256"
        }
      ],
      "name": "ECDSAInvalidSignatureLength",
      "type": "error"
    },
    {
      "inputs": [
        {
          "internalType": "bytes32",
          "name": "s",
          "type": "bytes32"
        }
      ],
      "name": "ECDSAInvalidSignatureS",
      "type": "error"
    },
    {
      "inputs": [],
      "name": "EnforcedPause",
      "type": "error"
    },
    {
      "inputs": [],
      "name": "ExpectedPause",
      "type": "error"
    },
    {
      "inputs": [],
      "name": "InvalidInitialization",
      "type": "error"
    },
    {
      "inputs": [],
      "name": "NotInitializing",
      "type": "error"
    },
    {
      "inputs": [],
      "name": "ReentrancyGuardReentrantCall",
      "type": "error"
    },
    {
      "inputs": [
        {
          "internalType": "uint256",
          "name": "value",
          "type": "uint256"
        },
        {
          "internalType": "uint256",
          "name": "length",
          "type": "uint256"
        }
      ],
      "name": "StringsInsufficientHexLength",
      "type": "error"
    },
    {
      "anonymous": false,
      "inputs": [
        {
          "indexed": true,
          "internalType": "address",
          "name": "oldAdmin",
          "type": "address"
        },
        {
          "indexed": true,
          "internalType": "address",
          "name": "newAdmin",
          "type": "address"
        }
      ],
      "name": "AdminChanged",
      "type": "event"
    },
    {
      "anonymous": false,
      "inputs": [
        {
          "components": [
            {
              "internalType": "enum OracleType",
              "name": "oracleType",
              "type": "uint8"
            },
            {
              "internalType": "address",
              "name": "contractAddress",
              "type": "address"
            }
          ],
          "indexed": false,
          "internalType": "struct AttestationConfig[]",
          "name": "attestationConfigs",
          "type": "tuple[]"
        }
      ],
      "name": "AttestationContractUpdated",
      "type": "event"
    },
    {
      "anonymous": false,
      "inputs": [
        {
          "indexed": false,
          "internalType": "uint64",
          "name": "version",
          "type": "uint64"
        }
      ],
      "name": "Initialized",
      "type": "event"
    },
    {
      "anonymous": false,
      "inputs": [
        {
          "indexed": false,
          "internalType": "address",
          "name": "account",
          "type": "address"
        }
      ],
      "name": "Paused",
      "type": "event"
    },
    {
      "anonymous": false,
      "inputs": [
        {
          "indexed": true,
          "internalType": "bytes32",
          "name": "role",
          "type": "bytes32"
        },
        {
          "indexed": true,
          "internalType": "bytes32",
          "name": "previousAdminRole",
          "type": "bytes32"
        },
        {
          "indexed": true,
          "internalType": "bytes32",
          "name": "newAdminRole",
          "type": "bytes32"
        }
      ],
      "name": "RoleAdminChanged",
      "type": "event"
    },
    {
      "anonymous": false,
      "inputs": [
        {
          "indexed": true,
          "internalType": "bytes32",
          "name": "role",
          "type": "bytes32"
        },
        {
          "indexed": true,
          "internalType": "address",
          "name": "account",
          "type": "address"
        },
        {
          "indexed": true,
          "internalType": "address",
          "name": "sender",
          "type": "address"
        }
      ],
      "name": "RoleGranted",
      "type": "event"
    },
    {
      "anonymous": false,
      "inputs": [
        {
          "indexed": true,
          "internalType": "bytes32",
          "name": "role",
          "type": "bytes32"
        },
        {
          "indexed": true,
          "internalType": "address",
          "name": "account",
          "type": "address"
        },
        {
          "indexed": true,
          "internalType": "address",
          "name": "sender",
          "type": "address"
        }
      ],
      "name": "RoleRevoked",
      "type": "event"
    },
    {
      "anonymous": false,
      "inputs": [
        {
          "indexed": false,
          "internalType": "address",
          "name": "account",
          "type": "address"
        }
      ],
      "name": "Unpaused",
      "type": "event"
    },
    {
      "inputs": [],
      "name": "ADMIN_ROLE",
      "outputs": [
        {
          "internalType": "bytes32",
          "name": "",
          "type": "bytes32"
        }
      ],
      "stateMutability": "view",
      "type": "function"
    },
    {
      "inputs": [],
      "name": "DEFAULT_ADMIN_ROLE",
      "outputs": [
        {
          "internalType": "bytes32",
          "name": "",
          "type": "bytes32"
        }
      ],
      "stateMutability": "view",
      "type": "function"
    },
    {
      "inputs": [],
      "name": "PAUSER_ROLE",
      "outputs": [
        {
          "internalType": "bytes32",
          "name": "",
          "type": "bytes32"
        }
      ],
      "stateMutability": "view",
      "type": "function"
    },
    {
      "inputs": [],
      "name": "VERSION",
      "outputs": [
        {
          "internalType": "string",
          "name": "",
          "type": "string"
        }
      ],
      "stateMutability": "view",
      "type": "function"
    },
    {
      "inputs": [],
      "name": "admin",
      "outputs": [
        {
          "internalType": "address",
          "name": "",
          "type": "address"
        }
      ],
      "stateMutability": "view",
      "type": "function"
    },
    {
      "inputs": [
        {
          "internalType": "enum OracleType",
          "name": "",
          "type": "uint8"
        }
      ],
      "name": "attestationContract",
      "outputs": [
        {
          "internalType": "address",
          "name": "",
          "type": "address"
        }
      ],
      "stateMutability": "view",
      "type": "function"
    },
    {
      "inputs": [
        {
          "internalType": "bytes32[]",
          "name": "proofNonces",
          "type": "bytes32[]"
        }
      ],
      "name": "cleanExpiredProofs",
      "outputs": [],
      "stateMutability": "nonpayable",
      "type": "function"
    },
    {
      "inputs": [
        {
          "internalType": "bytes32",
          "name": "role",
          "type": "bytes32"
        }
      ],
      "name": "getRoleAdmin",
      "outputs": [
        {
          "internalType": "bytes32",
          "name": "",
          "type": "bytes32"
        }
      ],
      "stateMutability": "view",
      "type": "function"
    },
    {
      "inputs": [
        {
          "internalType": "bytes32",
          "name": "role",
          "type": "bytes32"
        },
        {
          "internalType": "address",
          "name": "account",
          "type": "address"
        }
      ],
      "name": "grantRole",
      "outputs": [],
      "stateMutability": "nonpayable",
      "type": "function"
    },
    {
      "inputs": [
        {
          "internalType": "bytes32",
          "name": "role",
          "type": "bytes32"
        },
        {
          "internalType": "address",
          "name": "account",
          "type": "address"
        }
      ],
      "name": "hasRole",
      "outputs": [
        {
          "internalType": "bool",
          "name": "",
          "type": "bool"
        }
      ],
      "stateMutability": "view",
      "type": "function"
    },
    {
      "inputs": [
        {
          "components": [
            {
              "internalType": "enum OracleType",
              "name": "oracleType",
              "type": "uint8"
            },
            {
              "internalType": "address",
              "name": "contractAddress",
              "type": "address"
            }
          ],
          "internalType": "struct AttestationConfig[]",
          "name": "_attestationConfigs",
          "type": "tuple[]"
        },
        {
          "internalType": "address",
          "name": "_admin",
          "type": "address"
        }
      ],
      "name": "initialize",
      "outputs": [],
      "stateMutability": "nonpayable",
      "type": "function"
    },
    {
      "inputs": [],
      "name": "maxProofAge",
      "outputs": [
        {
          "internalType": "uint256",
          "name": "",
          "type": "uint256"
        }
      ],
      "stateMutability": "view",
      "type": "function"
    },
    {
      "inputs": [],
      "name": "pause",
      "outputs": [],
      "stateMutability": "nonpayable",
      "type": "function"
    },
    {
      "inputs": [],
      "name": "paused",
      "outputs": [
        {
          "internalType": "bool",
          "name": "",
          "type": "bool"
        }
      ],
      "stateMutability": "view",
      "type": "function"
    },
    {
      "inputs": [
        {
          "internalType": "bytes32",
          "name": "role",
          "type": "bytes32"
        },
        {
          "internalType": "address",
          "name": "callerConfirmation",
          "type": "address"
        }
      ],
      "name": "renounceRole",
      "outputs": [],
      "stateMutability": "nonpayable",
      "type": "function"
    },
    {
      "inputs": [
        {
          "internalType": "bytes32",
          "name": "role",
          "type": "bytes32"
        },
        {
          "internalType": "address",
          "name": "account",
          "type": "address"
        }
      ],
      "name": "revokeRole",
      "outputs": [],
      "stateMutability": "nonpayable",
      "type": "function"
    },
    {
      "inputs": [
        {
          "internalType": "address",
          "name": "newAdmin",
          "type": "address"
        }
      ],
      "name": "setAdmin",
      "outputs": [],
      "stateMutability": "nonpayable",
      "type": "function"
    },
    {
      "inputs": [
        {
          "internalType": "bytes4",
          "name": "interfaceId",
          "type": "bytes4"
        }
      ],
      "name": "supportsInterface",
      "outputs": [
        {
          "internalType": "bool",
          "name": "",
          "type": "bool"
        }
      ],
      "stateMutability": "view",
      "type": "function"
    },
    {
      "inputs": [],
      "name": "unpause",
      "outputs": [],
      "stateMutability": "nonpayable",
      "type": "function"
    },
    {
      "inputs": [
        {
          "components": [
            {
              "internalType": "enum OracleType",
              "name": "oracleType",
              "type": "uint8"
            },
            {
              "internalType": "address",
              "name": "contractAddress",
              "type": "address"
            }
          ],
          "internalType": "struct AttestationConfig[]",
          "name": "_attestationConfigs",
          "type": "tuple[]"
        }
      ],
      "name": "updateAttestationContract",
      "outputs": [],
      "stateMutability": "nonpayable",
      "type": "function"
    },
    {
      "inputs": [
        {
          "internalType": "uint256",
          "name": "_maxProofAge",
          "type": "uint256"
        }
      ],
      "name": "updateMaxProofAge",
      "outputs": [],
      "stateMutability": "nonpayable",
      "type": "function"
    },
    {
      "inputs": [
        {
          "components": [
            {
              "components": [
                {
                  "internalType": "bytes32",
                  "name": "oldDataHash",
                  "type": "bytes32"
                },
                {
                  "internalType": "bytes32",
                  "name": "newDataHash",
                  "type": "bytes32"
                },
                {
                  "internalType": "bytes",
                  "name": "nonce",
                  "type": "bytes"
                },
                {
                  "internalType": "bytes",
                  "name": "encryptedPubKey",
                  "type": "bytes"
                },
                {
                  "internalType": "bytes",
                  "name": "proof",
                  "type": "bytes"
                }
              ],
              "internalType": "struct AccessProof",
              "name": "accessProof",
              "type": "tuple"
            },
            {
              "components": [
                {
                  "internalType": "enum OracleType",
                  "name": "oracleType",
                  "type": "uint8"
                },
                {
                  "internalType": "bytes32",
                  "name": "oldDataHash",
                  "type": "bytes32"
                },
                {
                  "internalType": "bytes32",
                  "name": "newDataHash",
                  "type": "bytes32"
                },
                {
                  "internalType": "bytes",
                  "name": "sealedKey",
                  "type": "bytes"
                },
                {
                  "internalType": "bytes",
                  "name": "encryptedPubKey",
                  "type": "bytes"
                },
                {
                  "internalType": "bytes",
                  "name": "nonce",
                  "type": "bytes"
                },
                {
                  "internalType": "bytes",
                  "name": "proof",
                  "type": "bytes"
                }
              ],
              "internalType": "struct OwnershipProof",
              "name": "ownershipProof",
              "type": "tuple"
            }
          ],
          "internalType": "struct TransferValidityProof[]",
          "name": "proofs",
          "type": "tuple[]"
        }
      ],
      "name": "verifyTransferValidity",
      "outputs": [
        {
          "components": [
            {
              "internalType": "bytes32",
              "name": "oldDataHash",
              "type": "bytes32"
            },
            {
              "internalType": "bytes32",
              "name": "newDataHash",
              "type": "bytes32"
            },
            {
              "internalType": "bytes",
              "name": "sealedKey",
              "type": "bytes"
            },
            {
              "internalType": "bytes",
              "name": "encryptedPubKey",
              "type": "bytes"
            },
            {
              "internalType": "bytes",
              "name": "wantedKey",
              "type": "bytes"
            },
            {
              "internalType": "address",
              "name": "accessAssistant",
              "type": "address"
            },
            {
              "internalType": "bytes",
              "name": "accessProofNonce",
              "type": "bytes"
            },
            {
              "internalType": "bytes",
              "name": "ownershipProofNonce",
              "type": "bytes"
            }
          ],
          "internalType": "struct TransferValidityProofOutput[]",
          "name": "",
          "type": "tuple[]"
        }
      ],
      "stateMutability": "nonpayable",
      "type": "function"
    }
  ],
  "bytecode": "0x6080604052348015600e575f5ffd5b5060156019565b60c9565b7ff0c57e16840df040f15088dc2f81fe391c3923bec73e23a9662efc9c229c6a00805468010000000000000000900460ff161560685760405163f92ee8a960e01b815260040160405180910390fd5b80546001600160401b039081161460c65780546001600160401b0319166001600160401b0390811782556040519081527fc7f505b2f371ae2175ee4913f4499e1f2633a7b5936321eed1cdaeb6115181d29060200160405180910390a15b50565b6120c6806100d65f395ff3fe608060405234801561000f575f5ffd5b506004361061013d575f3560e01c80638456cb59116100b4578063d547741f11610079578063d547741f1461026f578063d75b5c7214610282578063df630116146102c2578063e63ab1e9146102e2578063f851a440146102f6578063ffa1ad7414610309575f5ffd5b80638456cb591461022757806391d148541461022f578063a217fddf14610242578063a800e05d14610249578063d03f3f711461025c575f5ffd5b80634bacb206116101055780634bacb206146101ba5780635c975abb146101cd5780636f5b6b20146101e4578063704b6c02146101ed57806375b238fc1461020057806375bcd4c914610214575f5ffd5b806301ffc9a714610141578063248a9ca3146101695780632f2ff15d1461018a57806336568abe1461019f5780633f4ba83a146101b2575b5f5ffd5b61015461014f3660046117d3565b61033a565b60405190151581526020015b60405180910390f35b61017c6101773660046117fa565b610370565b604051908152602001610160565b61019d610198366004611827565b610390565b005b61019d6101ad366004611827565b6103b2565b61019d6103ea565b61019d6101c8366004611898565b61040c565b5f5160206120515f395f51905f525460ff16610154565b61017c60355481565b61019d6101fb3660046118d6565b61049a565b61017c5f5160206120715f395f51905f5281565b61019d61022236600461192f565b6105f4565b61019d610700565b61015461023d366004611827565b61071f565b61017c5f81565b61019d6102573660046117fa565b610755565b61019d61026a366004611961565b610772565b61019d61027d366004611827565b610a15565b6102aa6102903660046119be565b60346020525f90815260409020546001600160a01b031681565b6040516001600160a01b039091168152602001610160565b6102d56102d0366004611898565b610a31565b6040516101609190611a05565b61017c5f5160206120115f395f51905f5281565b6036546102aa906001600160a01b031681565b61032d604051806040016040528060058152602001640322e302e360dc1b81525081565b6040516101609190611b0e565b5f6001600160e01b03198216637965db0b60e01b148061036a57506301ffc9a760e01b6001600160e01b03198316145b92915050565b5f9081525f5160206120315f395f51905f52602052604090206001015490565b61039982610370565b6103a281610b2c565b6103ac8383610b36565b50505050565b6001600160a01b03811633146103db5760405163334bd91960e11b815260040160405180910390fd5b6103e58282610bd7565b505050565b5f5160206120115f395f51905f5261040181610b2c565b610409610c50565b50565b5f5b818110156103e5575f83838381811061042957610429611b20565b602090810292909201355f818152928390526040909220549192505060ff16801561046d57505f8181526001602052604090205461046a9062093a80611b48565b42115b15610491575f81815260208181526040808320805460ff1916905560019091528120555b5060010161040e565b5f6104a481610b2c565b6001600160a01b0382166104f75760405162461bcd60e51b8152602060048201526015602482015274496e76616c69642061646d696e206164647265737360581b60448201526064015b60405180910390fd5b6036546001600160a01b0390811690831681146103e557603680546001600160a01b0319166001600160a01b0385161790556105335f84610b36565b5061054b5f5160206120715f395f51905f5284610b36565b506105635f5160206120115f395f51905f5284610b36565b506001600160a01b038116156105af5761057d5f82610bd7565b506105955f5160206120715f395f51905f5282610bd7565b506105ad5f5160206120115f395f51905f5282610bd7565b505b826001600160a01b0316816001600160a01b03167f7e644d79422f17c01e4894b5f4f588d331ebfa28653d42ae832dc59e38c9798f60405160405180910390a3505050565b5f5160206120715f395f51905f5261060b81610b2c565b5f5b828110156106c15783838281811061062757610627611b20565b905060400201602001602081019061063f91906118d6565b60345f86868581811061065457610654611b20565b61066a92602060409092020190810191506119be565b600181111561067b5761067b611b5b565b600181111561068c5761068c611b5b565b815260208101919091526040015f2080546001600160a01b0319166001600160a01b039290921691909117905560010161060d565b507f5d900da2998fcfde328b6876ab858ce448dc8da983946ac1931a816cc5fef60683836040516106f3929190611b6f565b60405180910390a1505050565b5f5160206120115f395f51905f5261071781610b2c565b610409610caf565b5f9182525f5160206120315f395f51905f52602090815260408084206001600160a01b0393909316845291905290205460ff1690565b5f5160206120715f395f51905f5261076c81610b2c565b50603555565b5f61077b610cf7565b805490915060ff600160401b82041615906001600160401b03165f811580156107a15750825b90505f826001600160401b031660011480156107bc5750303b155b9050811580156107ca575080155b156107e85760405163f92ee8a960e01b815260040160405180910390fd5b845467ffffffffffffffff19166001178555831561081257845460ff60401b1916600160401b1785555b6001600160a01b0386166108605760405162461bcd60e51b8152602060048201526015602482015274496e76616c69642061646d696e206164647265737360581b60448201526064016104ee565b610868610d1f565b610870610d1f565b610878610d29565b5f5b8781101561092e5788888281811061089457610894611b20565b90506040020160200160208101906108ac91906118d6565b60345f8b8b858181106108c1576108c1611b20565b6108d792602060409092020190810191506119be565b60018111156108e8576108e8611b5b565b60018111156108f9576108f9611b5b565b815260208101919091526040015f2080546001600160a01b0319166001600160a01b039290921691909117905560010161087a565b5062093a80603555603680546001600160a01b0319166001600160a01b03881617905561095b5f87610b36565b506109735f5160206120715f395f51905f5287610b36565b5061098b5f5160206120115f395f51905f5287610b36565b507f5d900da2998fcfde328b6876ab858ce448dc8da983946ac1931a816cc5fef60688886040516109bd929190611b6f565b60405180910390a18315610a0b57845460ff60401b19168555604051600181527fc7f505b2f371ae2175ee4913f4499e1f2633a7b5936321eed1cdaeb6115181d29060200160405180910390a15b5050505050505050565b610a1e82610370565b610a2781610b2c565b6103ac8383610bd7565b6060610a3b610d39565b5f826001600160401b03811115610a5457610a54611be6565b604051908082528060200260200182016040528015610a8d57816020015b610a7a611788565b815260200190600190039081610a725790505b5090505f5b83811015610b24575f610ac7868684818110610ab057610ab0611b20565b9050602002810190610ac29190611bfa565b610d69565b905080838381518110610adc57610adc611b20565b60200260200101819052505f610af58260c0015161108d565b9050610b00816110be565b5f610b0e8360e0015161108d565b9050610b19816110be565b505050600101610a92565b509392505050565b6104098133611137565b5f5f5160206120315f395f51905f52610b4f848461071f565b610bce575f848152602082815260408083206001600160a01b03871684529091529020805460ff19166001179055610b843390565b6001600160a01b0316836001600160a01b0316857f2f8788117e7eff1d82e926ec794901d17c78024a50270940304540a733656f0d60405160405180910390a4600191505061036a565b5f91505061036a565b5f5f5160206120315f395f51905f52610bf0848461071f565b15610bce575f848152602082815260408083206001600160a01b0387168085529252808320805460ff1916905551339287917ff6391f5c32d9c69d2a47ea670b442974b53935d1edc7fd64eb21e047a839171b9190a4600191505061036a565b610c58611174565b5f5160206120515f395f51905f52805460ff191681557f5db9ee0a495bf2e6ff9c91a7834c1ba4fdd244a5e8aa4e537bd38aeae4b073aa335b6040516001600160a01b03909116815260200160405180910390a150565b610cb7610d39565b5f5160206120515f395f51905f52805460ff191660011781557f62e78cea01bee320cd4e420270b5ea74000d11b0c9f74754ebdbfc544b05a25833610c91565b5f807ff0c57e16840df040f15088dc2f81fe391c3923bec73e23a9662efc9c229c6a0061036a565b610d276111a3565b565b610d316111a3565b610d276111c8565b5f5160206120515f395f51905f525460ff1615610d275760405163d93c066560e01b815260040160405180910390fd5b610d71611788565b610d7e6020830183611c18565b60200135610d8c8380611c2c565b3514610dd25760405162461bcd60e51b8152602060048201526015602482015274496e76616c6964206f6c644461746148617368657360581b60448201526064016104ee565b610ddc8280611c2c565b358152610dec6020830183611c18565b60400135610dfa8380611c2c565b6020013514610e435760405162461bcd60e51b8152602060048201526015602482015274496e76616c6964206e65774461746148617368657360581b60448201526064016104ee565b610e4d8280611c2c565b60209081013590820152610e618280611c2c565b610e6f906060810190611c40565b8080601f0160208091040260200160405190810160405280939291908181526020018383808284375f920191909152505050506080820152610eb18280611c2c565b610ebf906040810190611c40565b8080601f0160208091040260200160405190810160405280939291908181526020018383808284375f9201919091525050505060c0820152610f046020830183611c18565b610f12906080810190611c40565b8080601f0160208091040260200160405190810160405280939291908181526020018383808284375f920191909152505050506060820152610f576020830183611c18565b610f65906060810190611c40565b8080601f0160208091040260200160405190810160405280939291908181526020018383808284375f920191909152505050506040820152610faa6020830183611c18565b610fb89060a0810190611c40565b8080601f0160208091040260200160405190810160405280939291908181526020018383808284375f9201919091525050505060e082015261100b610ffd8380611c2c565b61100690611d55565b6111f6565b6001600160a01b031660a08201525f61103861102a6020850185611c18565b61103390611dff565b6112df565b9050806110875760405162461bcd60e51b815260206004820152601760248201527f496e76616c6964206f776e6572736869702070726f6f6600000000000000000060448201526064016104ee565b50919050565b5f81336040516020016110a1929190611ee4565b604051602081830303815290604052805190602001209050919050565b5f8181526020819052604090205460ff16156111115760405162461bcd60e51b8152602060048201526012602482015271141c9bdbd988185b1c9958591e481d5cd95960721b60448201526064016104ee565b5f90815260208181526040808320805460ff191660019081179091559091529020429055565b611141828261071f565b6111705760405163e2517d3f60e01b81526001600160a01b0382166004820152602481018390526044016104ee565b5050565b5f5160206120515f395f51905f525460ff16610d2757604051638dfc202b60e01b815260040160405180910390fd5b6111ab61136c565b610d2757604051631afcd79f60e31b815260040160405180910390fd5b6111d06111a3565b60017f9b779b17422d0df92223018b32b4d1fa46e071723d6817e2486d003becc55f0055565b5f5f611240835f01518460200151856060015186604001516040516020016112219493929190611f24565b604051602081830303815290604052805190602001205f1c6020611385565b6040516020016112509190611f4e565b6040516020818303038152906040528051906020012090505f6112808460800151836114fe90919063ffffffff16565b90506001600160a01b0381166112d85760405162461bcd60e51b815260206004820152601860248201527f496e76616c69642061636365737320617373697374616e74000000000000000060448201526064016104ee565b9392505050565b5f80825160018111156112f4576112f4611b5b565b03611360575f61132a83602001518460400151856060015186608001518760a00151604051602001611221959493929190611f7f565b60405160200161133a9190611f4e565b6040516020818303038152906040528051906020012090506112d8818460c00151611526565b505f919050565b919050565b5f611375610cf7565b54600160401b900460ff16919050565b6060825f611394846002611fad565b61139f906002611b48565b6001600160401b038111156113b6576113b6611be6565b6040519080825280601f01601f1916602001820160405280156113e0576020820181803683370190505b509050600360fc1b815f815181106113fa576113fa611b20565b60200101906001600160f81b03191690815f1a905350600f60fb1b8160018151811061142857611428611b20565b60200101906001600160f81b03191690815f1a9053505f61144a856002611fad565b611455906001611b48565b90505b60018111156114cc576f181899199a1a9b1b9c1cb0b131b232b360811b83600f166010811061148957611489611b20565b1a60f81b82828151811061149f5761149f611b20565b60200101906001600160f81b03191690815f1a90535060049290921c916114c581611fc4565b9050611458565b5081156114f65760405163e22e27eb60e01b815260048101869052602481018590526044016104ee565b949350505050565b5f5f5f5f61150c86866115bf565b92509250925061151c8282611608565b5090949350505050565b5f80805260346020527f2dc2afdad33a5feea586a9545052327b65d28efb10d11fa69e77da986a1031cd5460405163e4c30c3160e01b81526001600160a01b039091169063e4c30c31906115809086908690600401611fd9565b602060405180830381865afa15801561159b573d5f5f3e3d5ffd5b505050506040513d601f19601f820116820180604052508101906112d89190611ff1565b5f5f5f83516041036115f6576020840151604085015160608601515f1a6115e8888285856116c0565b955095509550505050611601565b505081515f91506002905b9250925092565b5f82600381111561161b5761161b611b5b565b03611624575050565b600182600381111561163857611638611b5b565b036116565760405163f645eedf60e01b815260040160405180910390fd5b600282600381111561166a5761166a611b5b565b0361168b5760405163fce698f760e01b8152600481018290526024016104ee565b600382600381111561169f5761169f611b5b565b03611170576040516335e2f38360e21b8152600481018290526024016104ee565b5f80807f7fffffffffffffffffffffffffffffff5d576e7357a4501ddfe92f46681b20a08411156116f957505f9150600390508261177e565b604080515f808252602082018084528a905260ff891692820192909252606081018790526080810186905260019060a0016020604051602081039080840390855afa15801561174a573d5f5f3e3d5ffd5b5050604051601f1901519150506001600160a01b03811661177557505f92506001915082905061177e565b92505f91508190505b9450945094915050565b6040518061010001604052805f81526020015f81526020016060815260200160608152602001606081526020015f6001600160a01b0316815260200160608152602001606081525090565b5f602082840312156117e3575f5ffd5b81356001600160e01b0319811681146112d8575f5ffd5b5f6020828403121561180a575f5ffd5b5035919050565b80356001600160a01b0381168114611367575f5ffd5b5f5f60408385031215611838575f5ffd5b8235915061184860208401611811565b90509250929050565b5f5f83601f840112611861575f5ffd5b5081356001600160401b03811115611877575f5ffd5b6020830191508360208260051b8501011115611891575f5ffd5b9250929050565b5f5f602083850312156118a9575f5ffd5b82356001600160401b038111156118be575f5ffd5b6118ca85828601611851565b90969095509350505050565b5f602082840312156118e6575f5ffd5b6112d882611811565b5f5f83601f8401126118ff575f5ffd5b5081356001600160401b03811115611915575f5ffd5b6020830191508360208260061b8501011115611891575f5ffd5b5f5f60208385031215611940575f5ffd5b82356001600160401b03811115611955575f5ffd5b6118ca858286016118ef565b5f5f5f60408486031215611973575f5ffd5b83356001600160401b03811115611988575f5ffd5b611994868287016118ef565b90945092506119a7905060208501611811565b90509250925092565b803560028110611367575f5ffd5b5f602082840312156119ce575f5ffd5b6112d8826119b0565b5f81518084528060208401602086015e5f602082860101526020601f19601f83011685010191505092915050565b5f602082016020835280845180835260408501915060408160051b8601019250602086015f5b82811015611b0257603f198786030184528151805186526020810151602087015260408101516101006040880152611a676101008801826119d7565b905060608201518782036060890152611a8082826119d7565b91505060808201518782036080890152611a9a82826119d7565b91505060a0820151611ab760a08901826001600160a01b03169052565b5060c082015187820360c0890152611acf82826119d7565b91505060e0820151915086810360e0880152611aeb81836119d7565b965050506020938401939190910190600101611a2b565b50929695505050505050565b602081525f6112d860208301846119d7565b634e487b7160e01b5f52603260045260245ffd5b634e487b7160e01b5f52601160045260245ffd5b8082018082111561036a5761036a611b34565b634e487b7160e01b5f52602160045260245ffd5b602080825281018290525f8360408301825b85811015611bdc57611b92836119b0565b60028110611bae57634e487b7160e01b5f52602160045260245ffd5b82526001600160a01b03611bc460208501611811565b16602083015260409283019290910190600101611b81565b5095945050505050565b634e487b7160e01b5f52604160045260245ffd5b5f8235603e19833603018112611c0e575f5ffd5b9190910192915050565b5f823560de19833603018112611c0e575f5ffd5b5f8235609e19833603018112611c0e575f5ffd5b5f5f8335601e19843603018112611c55575f5ffd5b8301803591506001600160401b03821115611c6e575f5ffd5b602001915036819003821315611891575f5ffd5b60405160a081016001600160401b0381118282101715611ca457611ca4611be6565b60405290565b60405160e081016001600160401b0381118282101715611ca457611ca4611be6565b5f82601f830112611cdb575f5ffd5b81356001600160401b03811115611cf457611cf4611be6565b604051601f8201601f19908116603f011681016001600160401b0381118282101715611d2257611d22611be6565b604052818152838201602001851015611d39575f5ffd5b816020850160208301375f918101602001919091529392505050565b5f60a08236031215611d65575f5ffd5b611d6d611c82565b823581526020808401359082015260408301356001600160401b03811115611d93575f5ffd5b611d9f36828601611ccc565b60408301525060608301356001600160401b03811115611dbd575f5ffd5b611dc936828601611ccc565b60608301525060808301356001600160401b03811115611de7575f5ffd5b611df336828601611ccc565b60808301525092915050565b5f60e08236031215611e0f575f5ffd5b611e17611caa565b611e20836119b0565b8152602083810135908201526040808401359082015260608301356001600160401b03811115611e4e575f5ffd5b611e5a36828601611ccc565b60608301525060808301356001600160401b03811115611e78575f5ffd5b611e8436828601611ccc565b60808301525060a08301356001600160401b03811115611ea2575f5ffd5b611eae36828601611ccc565b60a08301525060c08301356001600160401b03811115611ecc575f5ffd5b611ed836828601611ccc565b60c08301525092915050565b604081525f611ef660408301856119d7565b905060018060a01b03831660208301529392505050565b5f81518060208401855e5f93019283525090919050565b8481528360208201525f611f44611f3e6040840186611f0d565b84611f0d565b9695505050505050565b7f19457468657265756d205369676e6564204d6573736167653a0a36360000000081525f6112d8601c830184611f0d565b8581528460208201525f611fa2611f3e611f9c6040850188611f0d565b86611f0d565b979650505050505050565b808202811582820484141761036a5761036a611b34565b5f81611fd257611fd2611b34565b505f190190565b828152604060208201525f6114f660408301846119d7565b5f60208284031215612001575f5ffd5b815180151581146112d8575f5ffdfe65d7a28e3265b37a6474929f336521b332c1681b933f6cb9f3376673440d862a02dd7bc7dec4dceedda775e58dd541e08a116c6c53815c0bd028192f7b626800cd5ed15c6e187e77e9aee88184c21f4f2182ab5827cb3b7e07fbedcd63f03300a49807205ce4d355092ef5a8a18f56e8913cf4a201fbe287825b095693c21775a2646970667358221220a6ceb0b6734f8fb603d2ade417ae4655e41b5a265e4e33d9aff33de0b8ff239264736f6c634300081c0033",
  "linkReferences": {},
  "deployedLinkReferences": {},
  "immutableReferences": {},
  "inputSourceName": "project/contracts/verifiers/Verifier.sol",
  "buildInfoId": "solc-0_8_28-8ef070022009e9b5098dfc506129d7b0d069dae0"
}